:020000040800F2
:1000000018080020890100085B210008351A000843
:10001000592100088F02000819270008000000007D
:100020000000000000000000000000006122000845
:100030009102000800000000492200086322000825
:10004000A3010008A3010008A3010008A301000800
:10005000A3010008A3010008A301000893020008FF
:10006000A3010008A3010008A3010008A3010008E0
:10007000A3010008A3010008A3010008A3010008D0
:10008000A3010008A3010008A3010008A3010008C0
:10009000A3010008A3010008A301000899020008B9
:1000A000A3010008A3010008A3010008A3010008A0
:1000B000A3010008A3010008C9220008A301000849
:1000C000A3010008A3010008A3010008A301000880
:1000D000A3010008A3010008A30100080D270008E0
:1000E000A3010008A3010008A301000800F002F822
:1000F00000F03AF80AA090E8000C82448344AAF188
:100100000107DA4501D100F02FF8AFF2090EBAE885
:100110000F0013F0010F18BFFB1A43F0010318473B
:10012000E027000000280000103A24BF78C878C1FA
:10013000FAD8520724BF30C830C144BF04680C60ED
:10014000704700000023002400250026103A28BF35
:1001500078C1FBD8520728BF30C148BF0B60704739
:100160001FB51FBD10B510BD00F05CF81146FFF7BC
:10017000F7FF02F06BFB00F07AF803B4FFF7F2FF31
:1001800003BC00F07DF8000009488047094800479B
:10019000FEE7FEE7FEE7FEE7FEE7FEE7FEE7FEE737
:1001A000FEE7FEE704480549054A064B7047000094
:1001B000C5220008ED0000081802002018080020E1
:1001C00018040020180400204FF0000200B5134668
:1001D00094469646203922BFA0E80C50A0E80C5067
:1001E000B1F12001BFF4F7AF090728BFA0E80C5018
:1001F00048BF0CC05DF804EB890028BF40F8042B11
:1002000008BF704748BF20F8022B11F0804F18BF7D
:1002100000F8012B704770477047704700487047DF
:10022000B40100207546FFF7F9FFAE4605006946A8
:10023000534620F00700854618B020B5FFF7B2FFFF
:10024000BDE820404FF000064FF000074FF00008D7
:100250004FF0000B21F00701AC46ACE8C009ACE858
:10026000C009ACE8C009ACE8C0098D46704710B5BC
:100270000446AFF300802046BDE81040FFF77DBF85
:1002800001491820ABBEFEE7260002007047FEE7DA
:100290007047022000F090B8202000F08DB872B6B0
:1002A000FEE710B590F821100022022905D00421A4
:1002B000816380F82020012010BD01680B6823F0C5
:1002C0000E030B6001680B6823F001030B6090F8CC
:1002D0004030C46B012101FA03F3636080F8211000
:1002E00080F82020104610BD10B590F82110002491
:1002F000022903D00421816301243DE001680A68DA
:1003000022F00E020A6001680A6822F001020A6007
:100310001A4A0168914201D1012121E0174A1432A1
:10032000914201D110211BE0144A2832914201D19F
:10033000891515E0114A3C32914201D189140FE030
:100340000E4A5032914202D14FF4803108E00B4AFC
:100350006432914202D14FF4801101E04FF080717C
:10036000064A083A5160012180F82110002180F8E6
:100370002010416B01B18847204610BD08000240A3
:1003800070B5044600F01EF90546601C02D0044812
:100390000078044400F016F9401BA042FAD370BD67
:1003A00000000020022803D0202803D102F0E6B983
:1003B00002F030BA70470000044910B50A680242E2
:1003C00002D00860FFF7EEFF10BD000014040140EA
:1003D0002DE9F84FDFF8B8910024A9F1040B23466A
:1003E0000F2709F1040AABF1040EC9E00125A5406D
:1003F0002A40AA427DD1674ED1F804C0ACEB060872
:10040000B44532D014DCBCF1030F3AD009DCBCF1A6
:10041000000F2AD0BCF1010F1CD0BCF1020F31D16A
:100420001DE0BCF1110F17D0BCF1120F2AD119E059
:10043000B8F5881F19D006DCB8F5803F15D0B8F59F
:10044000801F1FD111E0B8F5001F0ED0B8F5041FB2
:1004500018D10AE0CB6815E0CB681B1D12E0CB6811
:1004600008330FE0CB680C330CE08B682BB1012B09
:100470004FF0080303D0456104E0042302E0056166
:1004800000E00023FF2A01D8064601E000F104063F
:100490004FEA840501D9A5F12005D6F8008007FAB6
:1004A00005FC28EA0C0803FA05F548EA0508C6F831
:1004B00000804D68ED0062D5374DAE6946F001060B
:1004C000AE61AD6924F0030605F001050095334DDA
:1004D00006EB050CDCF80850A607360F07FA06F8FD
:1004E00025EA0805DFF8B880404503D14FF0000841
:1004F00017E044E0DFF8AC80404502D14FF001083E
:100500000FE0DFF8A480404502D14FF0020808E078
:10051000DFF89880404502D14FF0030801E04FF02A
:10052000040808FA06F848EA0508CCF808804D687F
:10053000D9F80060ED024D4601D5164300E0964320
:100540002E604D68DAF80060AD02554601D51643BD
:1005500000E096432E604D68DBF80060AD035D4619
:1005600001D5164300E096432E604D68DEF800602A
:10057000ED03754601D5164300E096432E60641CDA
:100580000D682A46E5407FF431AFBDE8F88F0000E2
:10059000080401400000111000100240000001405A
:1005A00000080140000C014000100140001401400F
:1005B0008068084000D0012070470AB1016170478F
:1005C0000904FBE701488068704700000000002034
:1005D00070B5040025D094F83D00002520B984F8BA
:1005E0003C50204600F07EFA242084F83D0020682C
:1005F000016821F0010101602068016841F40041B7
:1006000001602068016821F40041016000F0C6FB30
:100610004D4A6168914201D84C4900E04C498842FA
:1006200001D2012070BD4B492368B0FBF1F15E6837
:1006300026F03F060E435E606368934206D94FF48E
:10064000967359434FF47A73B1FBF3F12368491C55
:100650001E6A26F03F06314319626168914210D844
:100660004900401EB0FBF1F2521CC2F30B02042AF7
:1006700001D2042022E0B0FBF1F0401CC0F30B00DB
:100680001CE0A268F2B301EBC10303EB0116431EA9
:10069000B3FBF6F35B1C43F480431B0549D092B3D4
:1006A00001EBC10202EB0111401EB0FBF1F0401C56
:1006B000C0F30B0040F4804040F400402168CA6958
:1006C0004CF6FF739A431043C861D4E90710014305
:1006D0002068026822F0C00211430160D4E90301DE
:1006E00001432068826848F2FF339A4311438160D6
:1006F000D4E9050108432168CA6822F0FF021043CB
:10070000C86001E00EE016E02068016841F00101D8
:1007100001602564202084F83D00256384F83E5064
:10072000002070BD01EB4106431EB3FBF6F35B1CDA
:10073000B3E70120C2E701EB4101401EB0FBF1F03D
:10074000401CC0F30B00B7E7A086010080841E00A8
:1007500000093D0040420F002DE9FF4F83B0002506
:10076000DDE910799A4693460446DDF84880009505
:10077000FFF728FF064694F83D0020287CD1192376
:10078000012288492046009601F06AFA0028F5D136
:1007900094F83C0001286FD0012084F83C002068C8
:1007A0000168C90703D1016841F0010101602068B7
:1007B000016821F400610160222084F83D0040209E
:1007C00084F83E0025646762A4F82A90608D208535
:1007D0007548E062CDE9008653465A4620460499A2
:1007E00001F040F900287CD1208DDFF8C09120274E
:1007F00068B1012814D00228206801681ED041F495
:10080000806101602068416980690090BCE02068D7
:10081000416981690091016841F400710160B3E0B0
:100820002068016821F48061016072B62068416926
:1008300081690091016841F400710AE041F40061AE
:10084000016072B62068416981690091016821F4F4
:100850008061016062B697E0032865D801280CD05A
:10086000022843464FF000024946204600960BD02E
:1008700001F0F6F9A8BB0CE091E032464146204673
:1008800001F094FA68BB72E001F0EAF948BB72B675
:1008900033E02068016821F48061016072B620684D
:1008A0000069616A0870606A401C6062208D401EA9
:1008B0002085608D401E60853D4846F2A811006885
:1008C000B0FBF1F0C0EBC00000EB80000090401ED8
:1008D000009007D020684069C04340070DD50098BC
:1008E000F5E727E044F8305F6773A573206940F0AF
:1008F0002000206162B625731CE02068016841F485
:100900000071016020680069616A0870606A401CBB
:100910006062218D491E2185618D491E618562B607
:1009200021680969017026E032464146204601F0FF
:100930003DFA18B1012007B0BDE8F08F20680069CA
:10094000616A0870606A401C6062208D401E81B23E
:100950002185608D401E608520684269D243520720
:1009600012D4032903D1016821F480610160206859
:100970000069616A0870606A401C6062208D401ED8
:100980002085608D401E6085208D00287FF464AF37
:1009900084F83D7084F83E5084F83C50CBE7022048
:1009A000C9E70000020010000000FFFF0400010082
:1009B0000C0000202DE9FF4F83B09A46DDE9119726
:1009C00093460446DDF84080FFF7FCFD054694F8A9
:1009D0003D0020287FD1192301224049204600955F
:1009E00001F03EF9002876D194F83C00012872D03D
:1009F000012084F83C0020680168C90703D1016820
:100A000041F0010101602068016821F4006101608A
:100A1000212084F83D00402084F83E000026266412
:100A2000C4F82480A4F82A90608D20852C48E062C8
:100A3000CDE9007553465A462046049901F090F8D6
:100A400070B930E02A463946204601F0E7F958B13E
:100A5000206C042804D12068016841F40071016011
:100A6000012007B0BDE8F08F606A21680078086156
:100A7000606A401C6062218D491E89B22185628DA9
:100A8000521E628522685369DB435B070BD469B150
:100A900000781061606A401C6062208D401E2085D5
:100AA000608D401E6085208D0028CBD12A463946B6
:100AB000204601F0A9F80028CAD154F83D0B01687E
:100AC00041F400710160202004F81E09E677667782
:100AD0000020C6E7FFE70220C3E700000200100085
:100AE0000000FFFF10B586B0002100910191029136
:100AF000039100680F4988421AD10F4CA06940F059
:100B00000800A061A069694600F008000490C020B8
:100B1000009012200190032003900848FFF758FC32
:100B2000E06940F40010E061E06900F40010049016
:100B300006B010BD0054004000100240000C0140FF
:100B400002488168027811448160704700000020EB
:100B5000074810B5016841F010010160032000F062
:100B600075F80F2000F006F800F024F8002010BD02
:100B70000020024070B50D4D04464FF47A7128787C
:100B8000B1FBF0F00A490968B1FBF0F000F0DCFAC3
:100B900048B9102C07D200222146501E00F036F82A
:100BA00000206C6070BD012070BD000000000020BE
:100BB0000C0000200C4808B5816941F001018161F9
:100BC000816901F001010091C16941F08051C16169
:100BD000C06900F0805000900448416821F0E06155
:100BE00041F00071416008BD00100240000001406A
:100BF000002809DB00F01F0201219140400980001C
:100C000000F1E020C0F8001170470000F0B40E4B76
:100C10001B680C46C3F30223C3F10705042D00D95A
:100C20000425191D072901D2002300E0DB1E01263F
:100C300006FA05F1491E214099409E40761E164055
:100C40003143F0BC01F074BD0CED00E0064900F04A
:100C5000070208684FF6FF03184040EA0220034AE3
:100C600010430860704700000CED00E00000FA053A
:100C70002DE9F0470F46050061D0434E306800F083
:100C80000700B84209D2306820F0070038433060CE
:100C9000306800F00700B84251D128683B4C81070A
:100CA00012D5400703D5606840F4E06060602878A2
:100CB000000703D5606840F4605060606068A96810
:100CC00020F0F000084360602878C00728D06868EA
:100CD000012810D02168022810D0890700292EDAB7
:100CE000616821F0030101436160FFF76BFC8046FE
:100CF00041F288390DE021688903EFE78901EDE7CA
:100D0000FFF760FCA0EB0801494502D90320BDE8CC
:100D1000F0876068696800F00C00B0EB810FEFD1DC
:100D2000306800F00700B8420BD9306820F00700A7
:100D300038433060306800F00700B84201D001202D
:100D4000E5E72878400705D56068E96820F4E060A9
:100D5000084360602878000706D56068296920F498
:100D6000605040EAC100606000F038F86168084AED
:100D7000C1F30311515CC840064908600648006889
:100D8000FFF7F8FE0020C2E70020024000100240FA
:100D9000842800080C0000200400002004480549B5
:100DA00000684968044AC1F30221515CC840704799
:100DB0000C00002000100240942800080448054957
:100DC00000684968044AC1F3C221515CC8407047B9
:100DD0000C00002000100240942800080E4A5168C0
:100DE0000E4801F00C03042B11D0082B0FD10C4836
:100DF000C1F38343C903C05C0AD55168084AC1F3F3
:100E00004041921E515C054A5043B0FBF1F07047DF
:100E100004494843704700000010024000127A0065
:100E20007428000800093D002DE9F84F040070D037
:100E30002078C04DC00749D06868C0F38100012800
:100E400007D06868C0F38100022809D16868C00330
:100E500006D52868800339D560680028E7D035E0DA
:100E60006068B0F5803F0BD010B1B0F5A02F11D065
:100E7000286820F480302860286820F4802002E070
:100E8000286840F480302860606890B1FFF79AFBD2
:100E900006460AE0286840F480202860F0E700BF9A
:100EA000FFF790FB801B642873D828688003F7D570
:100EB0000CE0FFF787FB064605E000BFFFF782FB6B
:100EC000801B6428F0D828688003F7D420789A4ED5
:100ED00080074FF001094FF0000839D5686810F01D
:100EE0000C0F07D06868C0F38100022809D1686838
:100EF000C00306D42868800714D52069012808D1CA
:100F000010E02069B0B1C6F80090FFF75BFB074620
:100F100005E00AE1FFF756FBC01B0228C4D8286889
:100F20008007F7D52868616920F0F80040EAC10021
:100F300028600DE0C6F80080FFF744FB074604E098
:100F4000FFF740FBC01B022823D828688007F7D48E
:100F5000207800072CD57948A169D9B1C0F8009054
:100F6000FFF730FB074604E0FFF72CFBC01B02280D
:100F70000FD8686A8007F7D571484FF4FA510068B6
:100F8000B0FBF1F0009000BF0098411E0091FAD232
:100F90000EE080E0C0F80080FFF714FB074604E095
:100FA000FFF710FBC01B022875D8686A8007F7D4CA
:100FB0002078400760D5E8690027C00008D4E869B8
:100FC00040F08050E861E869012700F0805000900F
:100FD0005C480168C90513D40168834641F48071F7
:100FE0000160FFF7EFFA824606E000BFFFF7EAFA7A
:100FF000A0EB0A0064284ED8DBF80000C005F5D548
:10100000E06801280AD008B1052813D0286A20F02A
:1010100001002862286A20F0040002E0286A40F0FB
:1010200001002862E06841F2883B98B1FFF7CAFAF4
:1010300082460BE0286A40F004002862EEE700BF19
:10104000FFF7C0FAA0EB0A0159455AD8286A800771
:10105000F6D50CE0FFF7B6FA824605E0FFF7B2FAE4
:10106000A0EB0A0159454CD8286A8007F6D41FB175
:10107000E86920F08050E861E06988B36968C1F3ED
:101080008101022944D00228C6F8608004D0FFF70D
:1010900099FA044638E034E0FFF794FA074604E092
:1010A000FFF790FAC01B02282BD828688001F7D4DC
:1010B000206AB0F5803F05D16868A16820F400304F
:1010C00008436860D4E908010843696821F4741191
:1010D00008436860C6F86090FFF774FA044606E0BB
:1010E00025E000BFFFF76EFA001B022809D8286828
:1010F0008001F7D51BE000BFFFF764FA001B022850
:1011000002D90320BDE8F88F28688001F4D40EE0EE
:101110000128F7D06868226A00F48031914204D136
:10112000616A00F47010884201D00120EAE70020D3
:10113000E8E7000000100240000042428004424202
:101140000C0000200070004010B5401EB0F1807F00
:1011500001D3012010BD4FF0E02460610F21601722
:1011600001F0E6FA0020A06107202061002010BDF8
:101170007047704770B590F83C20012A26D00124B2
:1011800080F83C40022280F83D2003685A689D6840
:1011900022F070060A6832435A600D4B02689A4288
:1011A00008D0B2F1804F05D00A4B9A4202D00A4BC8
:1011B0009A4204D1496825F080031943916080F870
:1011C0003D40002180F83C10084670BD022070BDF3
:1011D000002C0140000400400008004010B504004D
:1011E00003D094F83D0010B107E0012010BD0020AD
:1011F00084F83C00204600F01FF8022084F83D00EF
:10120000211D206801F066F8012084F8460084F86A
:101210003E0084F83F0084F8400084F8410084F8E0
:10122000420084F8430084F8440084F8450084F8C0
:101230003D00002010BD000008B500680B49884241
:1012400012D10B48C16941F00401C161C06900229B
:1012500000F00400009011461E20FFF7D7FCBDE807
:1012600008401E20FFF7C4BC08BD00000008004075
:101270000010024070B5044690F83C00002501289B
:1012800017D0012684F83C60022084F83D002068D5
:10129000826822F0770222F47F4282600868502838
:1012A00038D00DDC20284FD005DC90B3102811D1A8
:1012B0004AE0022070BD302846D040280AD13BE0E9
:1012C00060282FD070280DD0B0F5805F03D0B0F526
:1012D000005F12D0012584F83D60002084F83C00B6
:1012E000284670BDCB68D1E90121206801F02EF8B5
:1012F0002068816841F0770109E0CB68D1E90121DC
:10130000206801F023F82068816841F48041816001
:10131000E1E719E0CA684968206801F0CBF850217C
:10132000206806E0CA684968206801F0D4F86021A6
:10133000206801F015F8CEE7CA684968206801F016
:10134000B9F840212068F4E7226801461046F0E72A
:1013500070472DE9F04104460068C66805694FF002
:101360000007A90713D5B10711D5F91E01610120A6
:101370002077206880698007204602D0FFF7E8FFC9
:1013800004E000F0BBF8204600F06AF92777680710
:1013900016D5700714D521686FF00400086102208B
:1013A00020772068806910F4407F204602D0FFF744
:1013B000CFFF04E000F0A2F8204600F051F92777B3
:1013C000280715D5300713D521686FF0080008618C
:1013D000042020772068C0698007204602D0FFF7EC
:1013E000B7FF04E000F08AF8204600F039F92777CB
:1013F000E80616D5F00614D521686FF010000861D4
:10140000082020772068C06910F4407F204602D071
:10141000FFF79EFF04E000F071F8204600F020F98D
:101420002777E80708D0F00706D021686FF00100A1
:101430000861204600F016F9280608D5300606D5C2
:1014400021686FF0800008612046FFF791FE680672
:1014500008D5700606D521686FF040000861204667
:1014600000F00AF9A8060AD5B00608D521686FF081
:10147000200008612046BDE8F041FFF77ABEBDE8D4
:10148000F081000010B586B0002100910191029119
:1014900003910368154802210322B3F1804F15D050
:1014A000134CA34210D1836943F008038361806920
:1014B000039200F0080004900120CDE900010D48DE
:1014C000694600BFFEF784FF06B010BD836943F094
:1014D000040383618069039200F0040004900F20EC
:1014E000CDE9000169460448ECE700000010024025
:1014F00000040040000C014000080140704770B536
:10150000044690F83C0000260D4601280FD001202B
:1015100084F83C006AB1042A1DD0082A2FD00C2A76
:101520003FD00126002084F83C00304670BD0220E8
:1015300070BD206800F01CFF2068816941F008013F
:1015400081612068816921F00401816120688169DD
:101550002A69114311E0206800F032FF2068816998
:1015600041F4006181612068816921F480618161B9
:10157000206881692A6941EA02218161D2E72068F5
:1015800000F04AFF2068C16941F00801C16120688C
:10159000C16921F00401C1612068C1692A69114350
:1015A00011E0206800F064FF2068C16941F4006127
:1015B000C1612068C16921F48061C1612068C1698D
:1015C0002A6941EA0221C161ACE710B5040003D0E9
:1015D00094F83D0010B107E0012010BD002084F810
:1015E0003C00204600F01EF8022084F83D00211D3A
:1015F000206800F06FFE012084F8460084F83E0069
:1016000084F83F0084F8400084F8410084F84200E8
:1016100084F8430084F8440084F8450084F83D00D1
:10162000002010BD08B501680B48B1F1804F0BD008
:101630000A4A914207D1C16941F00201C161C06902
:1016400000F00200009008BDC16941F00101C161D4
:10165000C06900F00100F5E70010024000040040FE
:101660007047000000680349884201D101F0B0B81A
:101670007047000000080040704718B5034690F816
:101680004200202801D0022018BD61B15AB10120CA
:10169000186300205863184601F01CF80028F3D1A5
:1016A000196B012901D0012018BD19680A68496821
:1016B000009119680C3151E8002F42F0100241E806
:1016C0000024002CF5D118BD034B02689A4202D1C8
:1016D000806A01F085B870470048004070470000FC
:1016E000F8B5016804460868CA684B6910F00F0F26
:1016F0004FF0000559D003F0010602F4907737430C
:1017000065D0C10705D0D10503D5616C41F0010159
:101710006164410705D5D90703D0616C41F002012E
:101720006164810705D5D90703D0616C41F00401DC
:101730006164010707D502F02001314303D0616CD9
:1017400041F008016164616C00293AD0800604D53B
:10175000900602D5204600F0FFFE20684069616CCB
:10176000C0F38010090700D460B3204600F0CDFE1E
:1017700020684069400621D52068143050E8001FD9
:1017800021F0400140E80012002AF5D1E06BA8B139
:101790006D494163E06BFEF7A7FD002811D0E06BB7
:1017A000416B01B0BDE8F040084783060FD59306B2
:1017B0000DD52046BDE8F84000F0CEBE2046FFF72C
:1017C0008DFFF8BD2046FFF789FF6564F8BD266BE5
:1017D0002023012E7CD1C6067AD5D60678D5086896
:1017E0004868009048694FF00206400640D5E16B1A
:1017F000086840680004000CE8D0A28D8242E5D958
:10180000E085886920282DD020680C3050E8001F22
:1018100021F4807140E80012002AF5D120681430CC
:1018200050E8001F21F0010140E80012002AF5D124
:101830002068143050E8001F21F0400140E80012F9
:10184000002AF5D184F84230256320680C3050E836
:10185000001F21F0100140E80012002AF5D1E06BD2
:10186000FEF71FFD6663A08DE18D401A81B22AE06C
:10187000A08DE18D401A81B2E08D0028A6D000290C
:10188000A4D022680C3252E8000F20F4907042E895
:101890000007002FF5D12068143050E8002F22F007
:1018A000010240E80027002FF5D184F8423025637B
:1018B00020680C3050E8002F22F0100240E800238E
:1018C000002BF5D166632046FFF7FEFEF8BDFFE76B
:1018D00005062BD5150629D594F841002128F5D108
:1018E000A068B0F5805F01D12069B0B1206A411CC9
:1018F0002162216800784860E08C401E0004000CE2
:10190000E084E3D12068C16821F08001C1602068D3
:10191000C16841F04001C160D8E7206A0088C0F387
:1019200008004860206A801C2062E5E74006CDD5AB
:101930005006CBD5CA68204622F04002CA6084F81F
:10194000413000F076F8C1E7FB24000870B50400D0
:1019500004D094F84100002510B106E0012070BDCC
:1019600084F84050204600F023F8242084F84100F9
:101970002068C16821F40051C160204600F04EFE8D
:101980002068016921F4904101612068416921F0DA
:101990002A0141612068C16841F40051C160656459
:1019A000202084F8410084F842006563002070BD67
:1019B00030B585B00024009401940294039400682B
:1019C000184988422CD11848C16941F48021C1616D
:1019D000C16901F480210491816941F008018161AC
:1019E0008069124D00F0080004904FF48060009070
:1019F000022001900320039069462846FEF7E8FC88
:101A0000E814CDE90004694628460294FEF7E0FC9C
:101A1000002211462720FFF7F9F82720FFF7E8F802
:101A200005B030BD0048004000100240000C0140ED
:101A300070477047FEE701684A69D24352050FD4E8
:101A40006FF480624A61002140F8301F2022427307
:101A50008173026942F00402026101730120704740
:101A6000002070472DE9F84F0446006889460B9D19
:101A700001689846174641F480610160206801685A
:101A800041F48071016000954FF0011B002259461E
:101A900020460A9B00F0E4F84FF4007A40B1206839
:101AA0000068C00501D5C4F840A00320BDE8F88F48
:101AB000216809F0FE0008612B46284920460A9A51
:101AC00000F016F9F0BB20684169806900902A4651
:101AD00020460A9900F0A2F940B1206C04283AD1BE
:101AE0002068016841F40071016034E0FEB2B8F191
:101AF000010F09D02168380A08612A4620460A9950
:101B000000F08CF90028E8D1206806612A462046BA
:101B10000A9900F083F90028DFD12068016841F4B8
:101B20008071016000950022594620460A9B00F012
:101B300097F80028B3D1216809F0FF0040F00100B8
:101B4000086100E007E02B46044920460A9A00F0AD
:101B5000CFF80028AAD00120A8E700000200010069
:101B60002DE9F843044600680D46DDE90897016851
:101B70009846164641F4807101604B4600224FF0B2
:101B800001112046009700F06BF848B1206800680A
:101B9000C00502D54FF4007020640320BDE8F8832F
:101BA000216805F0FE0008613B464A46154920467B
:101BB00000F09EF888B920684169806900903A4633
:101BC0004946204600F02AF948B1206C042804D187
:101BD0002068016841F4007101600120DEE7F5B280
:101BE000B8F1010F09D02168300A08613A46494628
:101BF000204600F013F90028E7D120680561002095
:101C0000CCE700000200010070B516460D46044600
:101C10001EE02046FFF70FFF08B1012070BD681CD1
:101C200016D0FEF7CFFC801BA84200D885B92068EB
:101C30004069C04340070BD5002044F8300F2021F5
:101C40006173A073216941F0200121612073E4E7F1
:101C500020684069C0434007DBD4002070BD00000D
:101C60002DE9F047984617460D460446C1F307464E
:101C7000DDF820902AE000BFB8F1FF3F26D0FEF744
:101C8000A1FCA0EB0901414502D8B8F1000F1DD11C
:101C90002068012E16D0806925EA00000004000C9F
:101CA00012D00020B84211D1002044F8300F20217A
:101CB0006173A073216941F020012161207301202B
:101CC000BDE8F0874069E7E70120EBE72068012ED7
:101CD0000AD0806925EA00000004000C06D000202C
:101CE000B842C9D00020EBE74069F3E70120F7E7ED
:101CF0002DE9F047984616460D4604464FF0000978
:101D00004FF0200AC1F3074723E020684069C04331
:101D1000400515D42068016841F400710160216814
:101D20006FF480604861C4F8309084F83DA084F876
:101D30003E90216C41F00401216484F83C9021E044
:101D4000701C06D0FEF73EFCA0EB0800B04203D8A2
:101D500016B1012F1FD021E02068012F15D0806916
:101D600025EA00000004000C18D000BF44F8309FA2
:101D700084F80DA084F80E90216941F020012161C2
:101D800084F80C900120BDE8F087406925EA000046
:101D90000004000CEAD12068406901E020688069F5
:101DA00025EA00000004000CAFD1ECE72DE9F0417A
:101DB000002590460E460446202728E04069C0438F
:101DC000C0060CD454F8301B6FF01000486144F882
:101DD00010596777A577206A2062257714E0FEF70F
:101DE000F1FBA0EB0800B04200D886B9206840693A
:101DF000C04340060BD544F8305F6773A573206974
:101E000040F02000206125730120BDE8F0812068AA
:101E10004169C9434906D1D40020F6E770B516469A
:101E20000D4604461EE02046FFF705FE08B10120DE
:101E300070BD681C16D0FEF7C5FB801BA84200D8F9
:101E400085B920684069C04300060BD5002044F8DE
:101E5000300F20216173A073216941F020012161BD
:101E60002073E4E720684069C0430006DBD400200B
:101E700070BD0000F0B585B000253548009501958E
:101E800002950395816941F010018161816901F03A
:101E900010010491816941F020018161816901F0A3
:101EA00020010491816941F004018161816901F09F
:101EB00004010491816941F0080181618069254E26
:101EC00000F008004FF400540490002221463046F0
:101ED000FEF773FB204F002280213846FEF76DFB92
:101EE00000940124CDE90145022569463046039559
:101EF000FEF76EFA80208DE83100032003906946DA
:101F00003846FEF765FA15480295CDE90050144DA4
:101F100069462846FEF75CFA202000901148CDE97A
:101F2000010469462846FEF753FA002211460720AD
:101F3000FEF76CFE0720FEF75BFE0022114617201D
:101F4000FEF764FE1720FEF753FE05B0F0BD00005B
:101F50000010024000100140000801400000311054
:101F6000000C0140000021100D4810B50B49016024
:101F70000C49416000214FF480428160C0E90312A6
:101F800041618161C1610162FEF722FB002803D03B
:101F9000BDE81040FEF783B910BD000000540040BA
:101FA00040000020A086010010B58AB000240794EC
:101FB0001C2168460894FEF707F921484FF080413C
:101FC000C0E900144FF6FF71C0E902410461846169
:101FD000FFF7FBFA08B1FEF762F9079407A9184862
:101FE0000894FFF7C7F808B1FEF759F96020CDE96A
:101FF000000402940022694611480494FFF77FFA16
:1020000008B1FEF74CF9042269460D48FFF777FA4C
:1020100008B1FEF744F9082269460948FFF76FFA4C
:1020200008B1FEF73CF90C2269460548FFF767FA4C
:1020300008B1FEF734F90248FFF724FA0AB010BDE0
:102040009400002010B58AB0002407941C21684633
:102050000894FEF7B9F816481449016041F61F418B
:10206000C0E90114C721C0E903148461FFF7ADFA88
:1020700008B1FEF714F9079407A90D480894FFF773
:1020800079F808B1FEF70BF96020CDE9000402945D
:102090000822694606480494FFF731FA08B1FEF7B2
:1020A000FEF80348FFF7EEF90AB010BD0004004047
:1020B000DC00002010B586B000241848009401947C
:1020C00002940394049414490594016040F2CF21D2
:1020D000C0E901144FF6FF71C0E90314802181614A
:1020E000FFF77CF808B1FEF7DAF84FF48050009063
:1020F00069460A48FFF7BEF808B1FEF7D0F8049425
:1021000004A906480594FFF735F8002801D0FEF72A
:10211000C6F806B010BD00000008004024010020F1
:102120000C4810B50A4901604FF4E13141600021CB
:1021300081600C22C160C0E904128161C161FFF7B6
:1021400005FC002803D0BDE81040FEF7A8B810BD7C
:10215000004800406C010020FEE7FEE708B50020C3
:10216000009002226946432000F06FF8BDF800009D
:1021700008BD00007CB500208DF800008DF804003B
:10218000012201A900F0C9FA0520FEF7F9F80024A0
:1021900001226946002000F058F818B99DF80000A7
:1021A000202805D0641CE4B2052CF1D301207CBDAD
:1021B000234E244D002400BF16F8140006EB440102
:1021C0002870497869701F490122491C00F0A5FA5E
:1021D0000028EBD1641CE4B2322CEDD31949012262
:1021E000091D08782870497869701649491C00F063
:1021F00094FA0028DAD113490122891D0878287041
:10220000497869700F49491C00F087FA0028CDD140
:102210000C4905220831932000F07FFA0028C5D12F
:102220000848084A801C01230178297040786870AA
:1022300042F210700090521CE62000F0BBFA7CBD08
:102240009C28000830000020704708B542F2107347
:10225000009313460A460146E72000F09DFA08BDA8
:102260007047FEF76DBC30B58FB028216846FDF78A
:10227000ABFF14210AA8FDF7A7FF01210804CDE94F
:1022800000100024029402250491CDE907504FF478
:10229000E01009906846FEF7C7FD08B172B6FEE788
:1022A0000F20CDE90A054FF48060CDE90C400221F2
:1022B0000AA80E94FEF7DCFC002801D072B6FEE7F7
:1022C0000FB030BD704700000148FFF742B8000072
:1022D00024010020F0B50268194B1A4C1A4D4FF03A
:1022E0008047984205D0B84203D0A04201D0A8420E
:1022F00003D122F070064A683243984205D0B842B2
:1023000003D0A04201D0A84203D122F44074CA688D
:1023100022434C6922F08002224302608A68C26232
:102320000A688262984201D1096901630121416111
:102330000169C90703D0016921F001010161F0BD04
:10234000002C0140000400400008004010B58468E3
:1023500042EA032224F47F440A432243826010BDF0
:10236000826822F070020A4342F0070181607047E0
:1023700030B5036A026A22F001020262426884698F
:1023800024F073050C682C4323F002058B682B4363
:102390000A4DA8420BD123F00805CB6822F4407205
:1023A0002B434D6923F0040315438A692A43426095
:1023B000846149684163036230BD0000002C014024
:1023C00030B5026A036A23F010030362436884692C
:1023D0000D6824F4E64444EA05248D6822F02002C6
:1023E00042EA05120B4DA8420ED1CD6822F08002C0
:1023F00042EA05124D6923F4406343EA85038D697F
:1024000022F0400243EA85034360846149688163A6
:10241000026230BD002C014030B5036A026A22F42A
:10242000807202624268C46923F4007324F0730569
:102430000C682C438D6843EA05230C4DA8420ED14D
:10244000CD6823F4006343EA05234D6922F440522A
:1024500042EA05128D6923F4806342EA0512426064
:10246000C4614968C163036230BD0000002C0140B3
:1024700030B5046A026A22F4805202624268C3697B
:102480000D6823F4E64343EA05238D6824F40054E1
:1024900044EA0534064DA84204D14D6922F4804235
:1024A00042EA85124260C36149680164046230BD3A
:1024B000002C014010B5036A046A24F00104046290
:1024C000846924F0F00444EA021423F00A020A4367
:1024D0008461026210BD10B5036A046A24F010041E
:1024E0000462846923F0A00324F4704444EA0232B5
:1024F00043EA01118261016210BD10B5406A0021FA
:10250000C185C184FFF7EAF810BD01680C3151E8BC
:10251000002F22F4907241E80023002BF5D10168CE
:10252000143151E8002F22F0010241E80023002B72
:10253000F5D1016B012909D101680C3151E8002F57
:1025400022F0100241E80023002BF5D1202180F871
:10255000421000210163704708B590F8421022290B
:1025600001D0022008BD82684FF480539A4201D105
:10257000016921B1816A9A421BD04AB10AE002681E
:10258000816A5268C2F308020A80816A891C08E0E5
:10259000026972B10268526802F07F020A70816AB1
:1025A000491C8162C18D491E0904090CC18503D0F3
:1025B0001BE002685268F1E70168CA6822F0200255
:1025C000CA600168CA6822F48072CA6001684A69F8
:1025D00022F001024A61202180F84210002141636B
:1025E000026B012A03D0FFF723FA002008BD016324
:1025F00001680C3151E8002F22F0100241E800235D
:10260000002BF5D101680A68D20602D50A6849682C
:102610000091818DFFF758F8E7E7000070B5044698
:1026200000680169E26821F44051114301612169A8
:10263000A0680843616908432168CA6841F20C63D5
:102640009A430243CA6020684169A26921F440713B
:10265000114341611E492068884202D1FEF7AEFB5A
:1026600001E0FEF79BFB00EBC00101EB001260688C
:1026700064218000B2FBF0F3B3FBF1F36FF01806B6
:102680007343B2FBF0F5B2FBF0F605EB83053223A2
:1026900003EB0515B5FBF1F5B6FBF1F605F0F0051A
:1026A00005EB0615B2FBF0F6B2FBF0F0B0FBF1F073
:1026B0006FF01802504306EB800003EB0010B0FBF4
:1026C000F1F0216800F00F002844886070BD000020
:1026D0000038014081628285C28500214164222147
:1026E00080F84210016921B10168CA6842F4807221
:1026F000CA6001684A6942F001024A610068C16823
:1027000041F02001C1600020704700000148FEF741
:10271000E7BF00006C010020FEE708B542F210732D
:10272000009313460A460146E62000F043F808BD30
:102730000907090E002804DB00F1E02080F80014EE
:10274000704700F00F0000F1E02080F8141D704782
:10275000FFF710FD074C2070074800F017F8FFF74F
:10276000FDFC608060780028FCD16420FDF708FE45
:10277000F8E700002C000020392800080248006813
:10278000002800D000477047280000200149086059
:1027900070470000280000203EB5069C8DE81C0014
:1027A0000A46014601230248FDF7D6FF3EBD000060
:1027B000400000203EB5069C8DE81C000A460146FC
:1027C00001230248FEF7F6F83EBD0000400000205D
:1027D00002480068002800D0004770471000002021
:1027E00010B50A4CE26802B19047207800280BD05F
:1027F0006168002908D0A068002805D082B2BDE831
:1028000010400348FEF739BF10BD0000140000203F
:102810006C01002010B5064C2068002807D002216A
:102820000448FDF7C5FE2168BDE81040084710BD0B
:1028300024000020000C014010B5FFF78FFC024976
:1028400048800120487010BD2C000020FEF780F960
:10285000FFF709FDFFF70EFBFFF786FBFFF7A4FB71
:10286000FFF75EFCFFF7EEFBFFF724FCFFF770FFBE
:10287000FEE7010202030405060708090A0B0C0D16
:102880000E0F101000000000000000000102030401
:10289000060708090000000001020304EF003707E3
:1028A000381739064201462D470F483C49004A1E59
:1028B0004C2051105E1060278042814482048B01BD
:1028C0009006950A960C97059A149C3FA519CC1969
:1028D000CD0BCE13CF64D021EF01020F0310040201
:1028E00025012739287F29083EFF5E3D65966797B9
:1028F00069CD6A016D2C6E01720173357400770128
:1029000020290008000000204000000028010008E5
:102910006029000840000020D8070000440100089A
:1029200001000000100000000000000000127A000A
:102930000000000001000000000000000000000096
:102940000000000000000000000000000000000087
:102950000000720141FFEF000C10011F0F0000008A
:04000005080000ED02
:00000001FF
