:020000040800F2
:10000000000800208901000867190008AD160008E3
:10001000651900088F020008211E0008000000007A
:100020000000000000000000000000006B19000844
:100030009102000800000000691900086D1900080D
:10004000A3010008A3010008A3010008A301000800
:10005000A3010008A3010008A301000893020008FF
:10006000A3010008A3010008A3010008A3010008E0
:10007000A3010008A3010008A3010008A3010008D0
:10008000A3010008A3010008A3010008A3010008C0
:10009000A3010008A3010008A3010008A3010008B0
:1000A000A3010008A3010008A3010008A3010008A0
:1000B000A3010008A3010008D1190008A30100084A
:1000C000A3010008A3010008A3010008A301000880
:1000D000A3010008A3010008A3010008151E0008E1
:1000E000A3010008A3010008A301000800F002F822
:1000F00000F03AF80AA090E8000C82448344AAF188
:100100000107DA4501D100F02FF8AFF2090EBAE885
:100110000F0013F0010F18BFFB1A43F0010318473B
:10012000701D0000901D0000103A24BF78C878C1EF
:10013000FAD8520724BF30C830C144BF04680C60ED
:10014000704700000023002400250026103A28BF35
:1001500078C1FBD8520728BF30C148BF0B60704739
:100160001FB51FBD10B510BD00F058F81146FFF7C0
:10017000F7FF01F066FE00F076F803B4FFF7F2FF38
:1001800003BC00F07DF8000009488047094800479B
:10019000FEE7FEE7FEE7FEE7FEE7FEE7FEE7FEE737
:1001A000FEE7FEE704480549054A064B7047000094
:1001B000CF190008ED000008000200200008002010
:1001C00000040020000400204FF0000200B5134698
:1001D00094469646203922BFA0E80C50A0E80C5067
:1001E000B1F12001BFF4F7AF090728BFA0E80C5018
:1001F00048BF0CC05DF804EB890028BF40F8042B11
:1002000008BF704748BF20F8022B11F0804F18BF7D
:1002100000F8012B7047704770477047754600F033
:100220002BF8AE4605006946534620F00700854688
:1002300018B020B5FFF7B6FFBDE820404FF000062C
:100240004FF000074FF000084FF0000B21F00701BE
:10025000AC46ACE8C009ACE8C009ACE8C009ACE801
:10026000C0098D46704710B50446AFF300802046A4
:10027000BDE81040FFF781BF004870479C01002097
:1002800001491820ABBEFEE7260002007047FEE7DA
:100290007047022000F07CB872B6FEE710B590F807
:1002A00021100022022905D00421816380F820203A
:1002B000012010BD01680B6823F00E030B6001687C
:1002C0000B6823F001030B6090F84030C46B0121F0
:1002D00001FA03F3636080F8211080F820201046B3
:1002E00010BD000010B590F821100024022903D0A1
:1002F0000421816301243DE001680A6822F00E02B6
:100300000A6001680A6822F001020A601A4A01685C
:10031000914201D1012121E0174A1432914201D1C9
:1003200010211BE0144A2832914201D1891515E0B1
:10033000114A3C32914201D189140FE00E4A5032E9
:10034000914202D14FF4803108E00B4A643291426D
:1003500002D14FF4801101E04FF08071064A083A53
:100360005160012180F82110002180F82010416B9C
:1003700001B18847204610BD08000240022804D180
:1003800002480068002800D0004770472400002081
:10039000044910B50A68024202D00860FFF7EEFF78
:1003A00010BD0000140401402DE9F84FDFF8B891AA
:1003B0000024A9F1040B23460F2709F1040AABF12D
:1003C000040EC9E00125A5402A40AA427DD1674E0E
:1003D000D1F804C0ACEB0608B44532D014DCBCF153
:1003E000030F3AD009DCBCF1000F2AD0BCF1010F99
:1003F0001CD0BCF1020F31D11DE0BCF1110F17D0A0
:10040000BCF1120F2AD119E0B8F5881F19D006DC0B
:10041000B8F5803F15D0B8F5801F1FD111E0B8F5B1
:10042000001F0ED0B8F5041F18D10AE0CB6815E004
:10043000CB681B1D12E0CB6808330FE0CB680C3390
:100440000CE08B682BB1012B4FF0080303D0456102
:1004500004E0042302E0056100E00023FF2A01D844
:10046000064601E000F104064FEA840501D9A5F132
:100470002005D6F8008007FA05FC28EA0C0803FAE4
:1004800005F548EA0508C6F800804D68ED0062D51C
:10049000374DAE6946F00106AE61AD6924F0030642
:1004A00005F001050095334D06EB050CDCF808500E
:1004B000A607360F07FA06F825EA0805DFF8B88020
:1004C000404503D14FF0000817E044E0DFF8AC806E
:1004D000404502D14FF001080FE0DFF8A48040450D
:1004E00002D14FF0020808E0DFF89880404502D1C1
:1004F0004FF0030801E04FF0040808FA06F848EA54
:100500000508CCF808804D68D9F80060ED024D462A
:1005100001D5164300E096432E604D68DAF800607E
:10052000AD02554601D5164300E096432E604D6856
:10053000DBF80060AD035D4601D5164300E096434D
:100540002E604D68DEF80060ED03754601D5164358
:1005500000E096432E60641C0D682A46E5407FF457
:1005600031AFBDE8F88F0000080401400000111011
:10057000001002400000014000080140000C014052
:1005800000100140001401400AB1016170470904E4
:10059000FBE7000001488068704700000000002071
:1005A00070B5040025D094F83D00002520B984F8EA
:1005B0003C50204600F0B8F8242084F83D00206824
:1005C000016821F0010101602068016841F40041E7
:1005D00001602068016821F40041016000F000FA28
:1005E0004D4A6168914201D84C4900E04C4988422B
:1005F00001D2012070BD4B492368B0FBF1F15E6868
:1006000026F03F060E435E606368934206D94FF4BE
:10061000967359434FF47A73B1FBF3F12368491C85
:100620001E6A26F03F06314319626168914210D874
:100630004900401EB0FBF1F2521CC2F30B02042A27
:1006400001D2042022E0B0FBF1F0401CC0F30B000B
:100650001CE0A268F2B301EBC10303EB0116431ED9
:10066000B3FBF6F35B1C43F480431B0549D092B304
:1006700001EBC10202EB0111401EB0FBF1F0401C86
:10068000C0F30B0040F4804040F400402168CA6988
:100690004CF6FF739A431043C861D4E90710014335
:1006A0002068026822F0C00211430160D4E903010E
:1006B00001432068826848F2FF339A431143816006
:1006C000D4E9050108432168CA6822F0FF021043FB
:1006D000C86001E00EE016E02068016841F0010109
:1006E00001602564202084F83D00256384F83E5095
:1006F000002070BD01EB4106431EB3FBF6F35B1C0B
:10070000B3E70120C2E701EB4101401EB0FBF1F06D
:10071000401CC0F30B00B7E7A086010080841E00D8
:1007200000093D0040420F0010B586B00021009145
:1007300001910291039100680F4988421AD10F4C30
:10074000A06940F00800A061A069694600F00800B7
:100750000490C020009012200190032003900848CC
:10076000FFF722FEE06940F40010E061E06900F468
:100770000010049006B010BD00540040001002406C
:10078000000C014002488168027811448160704782
:1007900000000020074810B5016841F01001016019
:1007A000032000F075F80F2000F006F800F024F8A0
:1007B000002010BD0020024070B50D4D04464FF4DE
:1007C0007A712878B1FBF0F00A490968B1FBF0F0C2
:1007D00000F0DCFA48B9102C07D200222146501E46
:1007E00000F036F800206C6070BD012070BD000084
:1007F000000000200C0000200C4808B5816941F081
:1008000001018161816901F001010091C16941F03B
:100810008051C161C06900F0805000900448416877
:1008200021F0E06141F00071416008BD001002401C
:1008300000000140002809DB00F01F020121914067
:100840004009800000F1E020C0F80011704700006E
:10085000F0B40E4B1B680C46C3F30223C3F107052B
:10086000042D00D90425191D072901D2002300E019
:10087000DB1E012606FA05F1491E214099409E40E3
:10088000761E16403143F0BC01F0CBBA0CED00E00F
:10089000064900F0070208684FF6FF03184040EAD7
:1008A0000220034A10430860704700000CED00E08E
:1008B0000000FA052DE9F0470F46050061D0434ED0
:1008C000306800F00700B84209D2306820F0070015
:1008D00038433060306800F00700B84251D12868D2
:1008E0003B4C810712D5400703D5606840F4E060B7
:1008F00060602878000703D5606840F4605060604D
:100900006068A96820F0F000084360602878C0079C
:1009100028D06868012810D02168022810D08907E3
:1009200000292EDA616821F0030101436160FFF7BD
:1009300031FE804641F288390DE021688903EFE7F6
:100940008901EDE7FFF726FEA0EB0801494502D932
:100950000320BDE8F0876068696800F00C00B0EB28
:10096000810FEFD1306800F00700B8420BD9306832
:1009700020F0070038433060306800F00700B842CC
:1009800001D00120E5E72878400705D56068E968CF
:1009900020F4E060084360602878000706D56068AE
:1009A000296920F4605040EAC100606000F038F826
:1009B0006168084AC1F30311515CC84006490860E8
:1009C00006480068FFF7F8FE0020C2E7002002405A
:1009D00000100240761E00080C00002004000020D9
:1009E0000448054900684968044AC1F30221515C82
:1009F000C84070470C00002000100240861E00080E
:100A00000448054900684968044AC1F3C221515CA1
:100A1000C84070470C00002000100240861E0008ED
:100A20000E4A51680E4801F00C03042B11D0082B1C
:100A30000FD10C48C1F38343C903C05C0AD5516888
:100A4000084AC1F34041921E515C054A5043B0FB35
:100A5000F1F070470449484370470000001002401D
:100A600000127A00661E000800093D002DE9F84FCB
:100A7000040070D02078C04DC00749D06868C0F32A
:100A80008100012807D06868C0F38100022809D1DD
:100A90006868C00306D52868800339D560680028D7
:100AA000E7D035E06068B0F5803F0BD010B1B0F50D
:100AB000A02F11D0286820F480302860286820F406
:100AC000802002E0286840F480302860606890B19F
:100AD000FFF760FD06460AE0286840F480202860A1
:100AE000F0E700BFFFF756FD801B642873D8286825
:100AF0008003F7D50CE0FFF74DFD064605E000BF8B
:100B0000FFF748FD801B6428F0D828688003F7D4DD
:100B100020789A4E80074FF001094FF0000839D530
:100B2000686810F00C0F07D06868C0F381000228D5
:100B300009D16868C00306D42868800714D52069E5
:100B4000012808D110E02069B0B1C6F80090FFF785
:100B500021FD074605E00AE1FFF71CFDC01B022846
:100B6000C4D828688007F7D52868616920F0F800A4
:100B700040EAC10028600DE0C6F80080FFF70AFDDA
:100B8000074604E0FFF706FDC01B022823D82868AB
:100B90008007F7D4207800072CD57948A169D9B10E
:100BA000C0F80090FFF7F6FC074604E0FFF7F2FC00
:100BB000C01B02280FD8686A8007F7D571484FF428
:100BC000FA510068B0FBF1F0009000BF0098411EA0
:100BD0000091FAD20EE080E0C0F80080FFF7DAFC66
:100BE000074604E0FFF7D6FCC01B022875D8686AE8
:100BF0008007F7D42078400760D5E8690027C00057
:100C000008D4E86940F08050E861E869012700F005
:100C1000805000905C480168C90513D40168834680
:100C200041F480710160FFF7B5FC824606E000BF29
:100C3000FFF7B0FCA0EB0A0064284ED8DBF80000F8
:100C4000C005F5D5E06801280AD008B1052813D001
:100C5000286A20F001002862286A20F0040002E0DF
:100C6000286A40F001002862E06841F2883B98B1B0
:100C7000FFF790FC82460BE0286A40F004002862EF
:100C8000EEE700BFFFF786FCA0EB0A0159455AD8F2
:100C9000286A8007F6D50CE0FFF77CFC824605E069
:100CA000FFF778FCA0EB0A0159454CD8286A800769
:100CB000F6D41FB1E86920F08050E861E06988B39C
:100CC0006968C1F38101022944D00228C6F8608016
:100CD00004D0FFF75FFC044638E034E0FFF75AFC2D
:100CE000074604E0FFF756FCC01B02282BD82868F3
:100CF0008001F7D4206AB0F5803F05D16868A1680B
:100D000020F4003008436860D4E9080108436968AA
:100D100021F4741108436860C6F86090FFF73AFC4C
:100D2000044606E025E000BFFFF734FC001B022864
:100D300009D828688001F7D51BE000BFFFF72AFC1F
:100D4000001B022802D90320BDE8F88F2868800123
:100D5000F4D40EE00128F7D06868226A00F48031EC
:100D6000914204D1616A00F47010884201D00120E0
:100D7000EAE70020E8E700000010024000004242DD
:100D8000800442420C0000200070004010B5401E5C
:100D9000B0F1807F01D3012010BD4FF0E0246061ED
:100DA0000F21601701F03DF80020A06107202061AD
:100DB000002010BD7047704770B590F83C20012AA4
:100DC00026D0012480F83C40022280F83D200368B0
:100DD0005A689D6822F070060A6832435A600D4BCB
:100DE00002689A4208D0B2F1804F05D00A4B9A426D
:100DF00002D00A4B9A4204D1496825F08003194376
:100E0000916080F83D40002180F83C10084670BD9C
:100E1000022070BD002C014000040040000800408A
:100E200010B5040003D094F83D0010B107E0012094
:100E300010BD002084F83C00204600F01FF802207E
:100E400084F83D00211D206800F0C8FD012084F8D1
:100E5000460084F83E0084F83F0084F8400084F89F
:100E6000410084F8420084F8430084F8440084F888
:100E7000450084F83D00002010BD000008B5006862
:100E80000B49884212D10B48C16941F00401C1618C
:100E9000C069002200F00400009011461E20FFF7F8
:100EA000D7FCBDE808401E20FFF7C4BC08BD000009
:100EB000000800400010024070B5044690F83C0065
:100EC0000025012817D0012684F83C60022084F810
:100ED0003D002068826822F0770222F47F4282601F
:100EE0000868502838D00DDC20284FD005DC90B39E
:100EF000102811D14AE0022070BD302846D0402889
:100F00000AD13BE060282FD070280DD0B0F5805F6B
:100F100003D0B0F5005F12D0012584F83D600020B9
:100F200084F83C00284670BDCB68D1E901212068D7
:100F300000F090FD2068816841F0770109E0CB68FE
:100F4000D1E90121206800F085FD2068816841F425
:100F500080418160E1E719E0CA684968206800F0D3
:100F60002DFE5021206806E0CA684968206800F01C
:100F700036FE6021206800F077FDCEE7CA68496838
:100F8000206800F01BFE40212068F4E7226801463B
:100F90001046F0E770472DE9F04104460068C66846
:100FA00005694FF00007A90713D5B10711D5F91E40
:100FB000016101202077206880698007204602D0E7
:100FC000FFF7E8FF04E000F0BBF8204600F06AF904
:100FD0002777680716D5700714D521686FF00400CD
:100FE0000861022020772068806910F4407F204645
:100FF00002D0FFF7CFFF04E000F0A2F8204600F097
:1010000051F92777280715D5300713D521686FF0D8
:1010100008000861042020772068C0698007204606
:1010200002D0FFF7B7FF04E000F08AF8204600F096
:1010300039F92777E80616D5F00614D521686FF040
:1010400010000861082020772068C06910F4407FF4
:10105000204602D0FFF79EFF04E000F071F8204622
:1010600000F020F92777E80708D0F00706D02168BC
:101070006FF001000861204600F016F9280608D537
:10108000300606D521686FF0800008612046FFF722
:1010900091FE680608D5700606D521686FF04000FD
:1010A0000861204600F00EF9A8060AD5B00608D55A
:1010B00021686FF0200008612046BDE8F041FFF78D
:1010C0007ABEBDE8F081000010B586B00021009125
:1010D0000191029103910368154802210322B3F1A3
:1010E000804F15D0134CA34210D1836943F00803FD
:1010F00083618069039200F0080004900120CDE92B
:1011000000010D48694600BFFFF74EF906B010BD5B
:10111000836943F0040383618069039200F0040053
:1011200004900F20CDE9000169460448ECE7000077
:101130000010024000040040000C01400008014083
:10114000704770B5044690F83C0000260D46012813
:101150000FD0012084F83C006AB1042A1DD0082A6F
:101160002FD00C2A3FD00126002084F83C003046C6
:1011700070BD022070BD206800F07EFC206881698F
:1011800041F0080181612068816921F004018161D9
:10119000206881692A69114311E0206800F094FCFD
:1011A0002068816941F4006181612068816921F4CE
:1011B00080618161206881692A6941EA0221816137
:1011C000D2E7206800F0ACFC2068C16941F008015A
:1011D000C1612068C16921F00401C1612068C16951
:1011E0002A69114311E0206800F0C6FC2068C1693B
:1011F00041F40061C1612068C16921F48061C1616D
:101200002068C1692A6941EA0221C161ACE710B5D1
:10121000040003D094F83D0010B107E0012010BD98
:10122000002084F83C00204600F01EF8022084F8DC
:101230003D00211D206800F0D1FB012084F846000C
:1012400084F83E0084F83F0084F8400084F84100B0
:1012500084F8420084F8430084F8440084F8450090
:1012600084F83D00002010BD08B501680B48B1F1BD
:10127000804F0BD00A4A914207D1C16941F0020167
:10128000C161C06900F00200009008BDC16941F071
:101290000101C161C06900F00100F5E700100240E2
:1012A000000400407047000000680449884204D1EF
:1012B00003480068002800D000477047000800403D
:1012C00010000020704718B5034690F8420020280F
:1012D00001D0022018BD61B15AB10120186300206D
:1012E0005863184600F07AFD0028F3D1196B0129E4
:1012F00001D0012018BD19680A6849680091196871
:101300000C3151E8002F42F0100241E80024002C7B
:10131000F5D118BD70B5054600680C4A904213D14E
:101320000B4CE2680AB1A86A9047207800280BD0DD
:101330006168002908D0A068002805D082B228463C
:10134000BDE87040FFF7BFBF70BD0000004800401F
:101350001400002070470000F8B5016804460868D2
:10136000CA684B6910F00F0F4FF0000559D003F019
:10137000010602F49077374365D0C10705D0D10547
:1013800003D5616C41F001016164410705D5D907BE
:1013900003D0616C41F002016164810705D5D90772
:1013A00003D0616C41F004016164010707D502F0CC
:1013B0002001314303D0616C41F008016164616C2C
:1013C00000293AD0800604D5900602D5204600F0C8
:1013D00047FC20684069616CC0F38010090700D4A5
:1013E00060B3204600F015FC20684069400621D516
:1013F0002068143050E8001F21F0400140E800123E
:10140000002AF5D1E06BA8B16D494163E06BFEF7AE
:1014100069FF002811D0E06B416B01B0BDE8F040DE
:10142000084783060FD593060DD52046BDE8F84042
:1014300000F016BC2046FFF78DFFF8BD2046FFF7F1
:1014400089FF6564F8BD266B2023012E7CD1C6067A
:101450007AD5D60678D508684868009048694FF074
:101460000206400640D5E16B086840680004000CA5
:10147000E8D0A28D8242E5D9E085886920282DD068
:1014800020680C3050E8001F21F4807140E8001201
:10149000002AF5D12068143050E8001F21F0010126
:1014A00040E80012002AF5D12068143050E8001FEF
:1014B00021F0400140E80012002AF5D184F84230C2
:1014C000256320680C3050E8001F21F0100140E82F
:1014D0000012002AF5D1E06BFEF7E0FE6663A08DF6
:1014E000E18D401A81B22AE0A08DE18D401A81B2CF
:1014F000E08D0028A6D00029A4D022680C3252E842
:10150000000F20F4907042E80007002FF5D120680A
:10151000143050E8002F22F0010240E80027002F8D
:10152000F5D184F84230256320680C3050E8002F54
:1015300022F0100240E80023002BF5D1666320461C
:10154000FFF7E8FEF8BDFFE705062BD5150629D500
:1015500094F841002128F5D1A068B0F5805F01D151
:101560002069B0B1206A411C21622168007848607E
:10157000E08C401E0004000CE084E3D12068C168C8
:1015800021F08001C1602068C16841F04001C16064
:10159000D8E7206A0088C0F308004860206A801CF1
:1015A0002062E5E74006CDD55006CBD5CA68204677
:1015B00022F04002CA6084F8413000F076F8C1E7BA
:1015C000031C000870B5040004D094F84100002505
:1015D00010B106E0012070BD84F84050204600F0B4
:1015E00023F8242084F841002068C16821F40051C8
:1015F000C160204600F096FB2068016921F490410B
:1016000001612068416921F02A0141612068C168B7
:1016100041F40051C1606564202084F8410084F8E1
:1016200042006563002070BD30B585B00024009491
:101630000194029403940068184988422CD11848F8
:10164000C16941F48021C161C16901F48021049123
:10165000816941F0080181618069124D00F0080044
:1016600004904FF4806000900220019003200390CA
:1016700069462846FEF798FEE814CDE9000469465D
:1016800028460294FEF790FE002211462720FFF71D
:10169000DFF82720FFF7CEF805B030BD0048004046
:1016A00000100240000C014070477047FEE7000048
:1016B000F0B585B000242C48009401940294039462
:1016C000816941F010018161816901F0100104918B
:1016D000816941F020018161816901F0200104915B
:1016E000816941F004018161816901F00401049183
:1016F000816941F00801816180691C4E00F0080099
:101700004FF400550490002229463046FEF73CFF76
:10171000174F002280213846FEF736FF009501253D
:10172000CDE901540224694630460394FEF73CFE9D
:101730008020CDE900050320CDE902406946384606
:10174000FEF732FE0B486946CDE900400A48029494
:10175000FEF72AFE002211460720FFF779F807203E
:10176000FFF768F805B0F0BD00100240001001401E
:101770000008014000002110000C01400D4810B588
:101780000B4901600C49416000214FF480428160A7
:10179000C0E9031241618161C1610162FEF700FF8E
:1017A000002803D0BDE81040FEF776BD10BD000054
:1017B0000054004028000020A086010010B58AB027
:1017C000002407941C2168460894FEF7FDFC21487C
:1017D0004FF08041C0E900144FF6FF71C0E90241AB
:1017E00004618461FFF713FD08B1FEF755FD07940E
:1017F00007A918480894FFF7DFFA08B1FEF74CFD77
:101800006020CDE900040294002269461148049446
:10181000FFF797FC08B1FEF73FFD042269460D482B
:10182000FFF78FFC08B1FEF737FD0822694609482B
:10183000FFF787FC08B1FEF72FFD0C22694605482B
:10184000FFF77FFC08B1FEF727FD0248FFF73CFCDD
:101850000AB010BD7C00002010B58AB000240794A7
:101860001C2168460894FEF7AFFC16481449016035
:101870004FF4E151C0E90114C821C0E903148461A7
:10188000FFF7C5FC08B1FEF707FD079407A90D484F
:101890000894FFF791FA08B1FEF7FEFC6020CDE94D
:1018A000000402940822694606480494FFF749FCA4
:1018B00008B1FEF7F1FC0348FFF706FC0AB010BDC3
:1018C00000040040C400002010B586B00024164873
:1018D0000094019402940394049412490594C0E97D
:1018E00000144FF6FF71C0E9024104618461FFF703
:1018F00097FA08B1FEF7D0FC4FF48050009069468B
:101900000948FFF7D9FA08B1FEF7C6FC049404A908
:1019100005480594FFF750FA002801D0FEF7BCFCFB
:1019200006B010BD000800400C0100200C4810B5A6
:101930000A4901604FF4E1314160002181600C22CD
:10194000C160C0E904128161C161FFF73BFE00285C
:1019500003D0BDE81040FEF79FBC10BD004800401A
:1019600054010020FEE7FEE770477047FEF70ABF0C
:1019700030B58FB028216846FEF726FC14210AA84E
:10198000FEF722FC01210804CDE900100024029496
:1019900002250491CDE907504FF4E0100990684604
:1019A000FFF764F808B172B6FEE70F20CDE90A052B
:1019B0004FF48060CDE90C4002210AA80E94FEF796
:1019C00079FF002801D072B6FEE70FB030BD704736
:1019D0000148FFF7E0BA00000C010020F0B50268F2
:1019E000194B1A4C1A4D4FF08047984205D0B84217
:1019F00003D0A04201D0A84203D122F070064A6869
:101A00003243984205D0B84203D0A04201D0A84248
:101A100003D122F44074CA6822434C6922F0800248
:101A2000224302608A68C2620A688262984201D1D7
:101A300009690163012141610169C90703D0016995
:101A400021F001010161F0BD002C014000040040C3
:101A50000008004010B5846842EA032224F47F4461
:101A60000A432243826010BD826822F070020A435A
:101A700042F007018160704730B5036A026A22F0C4
:101A8000010202624268846924F073050C682C43E9
:101A900023F002058B682B430A4DA8420BD123F09B
:101AA0000805CB6822F440722B434D6923F00403F0
:101AB00015438A692A43426084614968416303622D
:101AC00030BD0000002C014030B5026A036A23F0EB
:101AD00010030362436884690D6824F4E64444EA11
:101AE00005248D6822F0200242EA05120B4DA8421F
:101AF0000ED1CD6822F0800242EA05124D6923F42E
:101B0000406343EA85038D6922F0400243EA85037E
:101B10004360846149688163026230BD002C0140EA
:101B200030B5036A026A22F4807202624268C469B4
:101B300023F4007324F073050C682C438D6843EA8A
:101B400005230C4DA8420ED1CD6823F4006343EA6F
:101B500005234D6922F4405242EA05128D6923F4AF
:101B6000806342EA05124260C4614968C16303624E
:101B700030BD0000002C014030B5046A026A22F436
:101B8000805202624268C3690D6823F4E64343EA67
:101B900005238D6824F4005444EA0534064DA84218
:101BA00004D14D6922F4804242EA85124260C36149
:101BB00049680164046230BD002C014010B5036A1D
:101BC000046A24F001040462846924F0F00444EA05
:101BD000021423F00A020A438461026210BD10B5A8
:101BE000036A046A24F010040462846923F0A003E9
:101BF00024F4704444EA023243EA01118261016232
:101C000010BD10B5406A0021C185C184FFF7A2FB59
:101C100010BD01680C3151E8002F22F4907241E8A8
:101C20000023002BF5D10168143151E8002F22F078
:101C3000010241E80023002BF5D1016B012909D1F4
:101C400001680C3151E8002F22F0100241E8002316
:101C5000002BF5D1202180F842100021016370474C
:101C600008B590F84210222901D0022008BD8268F0
:101C70004FF480539A4201D1016921B1816A9A429D
:101C80001BD04AB10AE00268816A5268C2F30802B6
:101C90000A80816A891C08E0026972B10268526890
:101CA00002F07F020A70816A491C8162C18D491E5F
:101CB0000904090CC18503D01BE002685268F1E7F2
:101CC0000168CA6822F02002CA600168CA6822F46A
:101CD0008072CA6001684A6922F001024A612021CB
:101CE00080F8421000214163026B012A03D0FFF704
:101CF000DBFC002008BD016301680C3151E8002FB6
:101D000022F0100241E80023002BF5D101680A6897
:101D1000D20602D50A6849680091818DFFF7FAFA68
:101D2000E7E7000070B5044600680169E26821F445
:101D30004051114301612169A0680843616908436A
:101D40002168CA6841F20C639A430243CA60206862
:101D50004169A26921F44071114341611E49206823
:101D6000884202D1FEF74CFE01E0FEF739FE00EB9F
:101D7000C00101EB0012606864218000B2FBF0F347
:101D8000B3FBF1F36FF018067343B2FBF0F5B2FB4F
:101D9000F0F605EB8305322303EB0515B5FBF1F5F2
:101DA000B6FBF1F605F0F00505EB0615B2FBF0F613
:101DB000B2FBF0F0B0FBF1F06FF01802504306EB0D
:101DC000800003EB0010B0FBF1F0216800F00F0081
:101DD0002844886070BD000000380140816282851F
:101DE000C28500214164222180F84210016921B19D
:101DF0000168CA6842F48072CA6001684A6942F0A8
:101E000001024A610068C16841F02001C160002000
:101E1000704700000148FFF79FBA000054010020FE
:101E2000FEE70907090E002804DB00F1E02080F836
:101E30000014704700F00F0000F1E02080F8141D3E
:101E40007047FEF7A7FCFFF793FDFFF731FCFFF7A4
:101E500095FCFFF7B3FCFFF769FDFFF7FDFCFFF70B
:101E600033FDFEE7010202030405060708090A0B19
:101E70000C0D0E0F10100000000000000000010209
:101E80000304060708090000000001020304000023
:101E9000B01E0008000000202800000028010008F3
:101EA000D81E000828000020D807000044010008C0
:101EB00001000000100000000000000000127A0085
:101EC0000000000001000000000000000000000011
:081ED00000000000000000000A
:04000005080000ED02
:00000001FF
